:0400000042EF09F0D2
:101000000000010E286E2250D8B409EF08F00BEF53
:1010100008F01BEF08F02250D96EDA6ADF30E832B0
:10102000E832070B236E070E236419EF08F01BEF5D
:1010300008F072EF08F0000E286E92EF08F02250D0
:10104000D96EDA6ADF30E832E832070B236E010E20
:10105000246E232A2EEF08F0D8902436232E2CEF6E
:1010600008F02450FF0A256E2250D96EDA6ADF504C
:10107000070B020DF350150FD96EDA6ADECF26F09A
:10108000DDCF27F026C0D9FF27C0DAFF2550DF16B5
:1010900092EF08F02250D96EDA6ADF30E832E83297
:1010A000070B236E010E246E232A59EF08F0D89007
:1010B0002436232E57EF08F02250D96EDA6ADF501B
:1010C000070B020DF350150FD96EDA6ADECF25F04B
:1010D000DDCF26F025C0D9FF26C0DAFF2450DF126D
:1010E00092EF08F02250D96EDA6ADFBC7AEF08F08E
:1010F0007DEF08F0010E7EEF08F0000E236E246AEB
:101100002450000AD8B487EF08F01BEF08F02350F2
:10111000000AD8B41FEF08F0010AD8B44AEF08F06B
:101120001BEF08F028501200010E296E2250D8B48F
:101130009CEF08F09EEF08F0AEEF08F02250D96E59
:10114000DA6ADF30E832E832070B246E070E2464D7
:10115000ACEF08F0AEEF08F005EF09F0000E296ED5
:101160001AEF09F02250D96EDA6ADF30E832E8323D
:10117000070B246E010E256E242AC1EF08F0D890CB
:101180002536242EBFEF08F02250D96EDA6ADF50E0
:10119000070B020DF350010FD96EDA6ADECF26F08D
:1011A000DDCF27F026C0D9FF27C0DAFF2550DF1298
:1011B0001AEF09F02250D96EDA6ADF30E832E832ED
:1011C000070B246E010E256E242AE9EF08F0D89053
:1011D0002536242EE7EF08F02550FF0A266E225010
:1011E000D96EDA6ADF50070B020DF350010FD96E8A
:1011F000DA6ADECF27F0DDCF28F027C0D9FF28C07C
:10120000DAFF2650DF161AEF09F02350246E256A04
:101210002550000AD8B40FEF09F0AEEF08F02450C3
:10122000000AD8B4DAEF08F0010AD8B4B2EF08F037
:10123000AEEF08F029501200210E226E01EC08F0EA
:101240002A6E210E226E010E236E94EC08F02A6E97
:10125000200E226E01EC08F02A6E200E226E010E86
:10126000236E94EC08F02A6E1F0E226E01EC08F03B
:101270002A6E1F0E226E010E236E94EC08F02A6E69
:1012800000EF00F0AE0EF66E120EF76E000EF86E66
:1012900000EE01F010EE21F00900F5CFEEFFE55071
:1012A000E150FAE1000EF86E00011CEF09F0890F21
:1012B0008A0F8B0F8C0F8D0F800F810F820F830F82
:0F12C000840F920F930F940F950F960F928A023F
:020000040020DA
:08000000FFFFFFFFFFFFFFFF00
:020000040030CA
:0E000000FF02091EFF8181FF0FC00FE00F40BD
:00000001FF
